:100000000C94B1000C94CE000C94CE000C94CE0055
:100010000C94CE000C94CE000C94CE000C94CE0028
:100020000C94CE000C94CE000C94CE000C94CE0018
:100030000C94CE000C94EC030C94CE000C94CE00E7
:100040000C94CE000C94CE000C94CE000C94CE00F8
:100050000C94CE006E616E00696E660000407A10EE
:10006000F35A00A0724E18090010A5D4E80000E869
:100070007648170000E40B54020000CA9A3B0000C7
:1000800000E1F505000080969800000040420F0056
:100090000000A08601000000102700000000E80317
:1000A000000000006400000000000A0000000000E2
:1000B0000100000000002C76D888DC674F0823DFA1
:1000C000C1DFAE59E1B1B796E5E3E453C63AE65174
:1000D000997696E8E6C28426EB898C9B62ED407C9B
:1000E0006FFCEFBC9C9F40F2BAA56FA5F490055A37
:1000F0002AF75C936B6CF9676DC11BFCE0E40D475C
:10010000FEF520E6B500D0ED902E0300943577057E
:100110000080841E080000204E0A000000C80C3336
:100120003333330F986E12831141EF8D2114893BC5
:10013000E65516CFFEE6DB18D1844B381BF77C1D45
:10014000901DA4BBE424203284725E228100C9F198
:1001500024ECA1E53D276364696E6F707375785870
:100160005B0011241FBECFE5D8E0DEBFCDBF10E09D
:10017000A0E6B0E0EAE6F0E202C005900D92AA3DEA
:10018000B107D9F721E0AAEDB0E001C01D92A43675
:10019000B207E1F70E9479020C9433100C9400002E
:1001A0009C0183E083BF83E807C082BF98B791605A
:1001B00098BF08B600FEFDCF21503109B0F713BE3D
:1001C0000895CF930E9480048EEE0E94860480EDF5
:1001D0000E948D040E9480048FEE0E9494040E946D
:1001E000A204C82F0E94A90481E090E0C83511F054
:1001F00080E090E0CF9108954FEE6EEE88E80E9487
:10020000AC049093DF008093DE004FEE6EEE8AE840
:100210000E94AC049093DD008093DC004FEE6EEE04
:100220008CE80E94AC049093DB008093DA00089580
:100230000E9480048EEE0E94860484EF0E948D044A
:1002400083E90E948D040E94A90408950E94E100A0
:10025000009731F00E94FC000E94180181E090E0BC
:1002600008958F929F92AF92BF92CF92DF92EF92BA
:10027000FF920F931F934FEE6EEE8AEF0E94CE0413
:100280000091DE001091DF0020E030E0C72ED82E74
:10029000E92EFF24E7FCFA94C01AD10AE20AF30A15
:1002A000DC01CB01689416F8B595A79597958795CD
:1002B0001694D1F7000F111F221F331F4C015D014F
:1002C000801A910AA20AB30AA5019401A091DC0048
:1002D000B091DD000E94DF0A4B015C01072E7BE03C
:1002E000B594A794979487947A95D1F7702DA70128
:1002F0009601C701B6010E94C40A9B01AC01012E00
:100300001CE055954795379527951A95D1F7102DEF
:10031000A091DA00B091DB000E94DF0ADC01CB0182
:10032000072E7EE0B595A795979587957A95D1F795
:10033000702D880D991DAA1DBB1D8C019D01000FFC
:10034000111F221F331F000F111F221F331F800F89
:10035000911FA21FB31F80589F4FAF4FBF4F692FF0
:100360007A2F8B2F992787FD9A950E944E0620E0C1
:1003700030E048EC52E40E94A4051F910F91FF90D9
:10038000EF90DF90CF90BF90AF909F908F900895A7
:1003900026E636E646EE5FE30E94DA0620E030E02D
:1003A00040E052E40E9438050895662311F0C09A97
:1003B00001C0C098C1988BBB8FEF8ABBC29A000066
:1003C00000000000C2980895C098C19A1ABA99B363
:1003D000C29A0000000000001ABA99B3C29899238B
:1003E0009CF30E94D5010895B89AB99ABA9A80E10F
:1003F00090E00E94D00060E080E30E94D50185E09B
:1004000090E00E94D00060E080E30E94D50181E08E
:1004100090E00E94D00060E08CE30E94E40160E084
:100420008CE00E94E40160E086E00E94E40160E06C
:1004300081E00E94E4010895CF93C62F98E2899F3E
:10044000C00D112460E082E00E94E401CC2331F071
:1004500060E084E10E94E401C150D1F7CF9108959A
:10046000CF93DF93EC012196FC018081882331F04A
:1004700061E00E94E40189918111FACFDF91CF916F
:100480000895EF92FF920F931F93CF93DF93CDB711
:10049000DEB72F970FB6F894DEBF0FBECDBFF42E98
:1004A000E22E9F938F937F936F9388E690E09F93C4
:1004B0008F938E010F5F1F4F1F930F930E94570C56
:1004C0006E2D8F2D0E941C02C8010E9430020FB6B3
:1004D000F894DEBF0FBECDBF2F960FB6F894DEBFE7
:1004E0000FBECDBFDF91CF911F910F91FF90EF9085
:1004F00008950E94F4010E947C040E9401057894F2
:100500000E942601892B89F460E080E00E941C0291
:100510008DE690E00E94300260E081E00E941C02C3
:1005200084E790E00E943002FFCF82E390E00E94D7
:10053000D0008091E0009091E100892B09F0A7C0E4
:100540000E9431010E94C80120E030E048EC52E4F2
:100550000E94DA060E941606CB010E94520489E12D
:1005600090E00E94D00080E090E00E942704BC014F
:1005700080E090E00E944C066B017C0160E080E02E
:100580000E941C0284E890E00E94300220E030E0EB
:1005900048EC52E4C701B6010E94A40522E030E015
:1005A00040E050E00E94410289E190E00E94D000CA
:1005B00081E090E00E942704BC0180E090E00E946E
:1005C0004C066B017C0168E080E00E941C0287E819
:1005D00090E00E94300220E030E048EC52E4C70195
:1005E000B6010E94A4052AE030E040E050E00E94FD
:1005F000410289E190E00E94D00082E090E00E94F8
:100600002704BC0180E090E00E944C066B017C0155
:1006100060E081E00E941C028AE890E00E943002C3
:1006200020E030E048EC52E4C701B6010E94A40586
:1006300022E030E041E050E00E94410289E190E098
:100640000E94D00083E090E00E942704BC0180E07B
:1006500090E00E944C066B017C0168E081E00E9402
:100660001C028DE890E00E94300220E030E048EC6F
:1006700052E4C701B6010E94A4052AE030E041E03F
:1006800050E00E94410289E190E00E94D00088EB96
:100690009BE00E94D0004DCFCF92DF92EF92FF926D
:1006A0000F931F93CF93DF93CDB7DEB72A970FB683
:1006B000F894DEBF0FBECDBF8091E4008037F1F427
:1006C0008091E0009091E1008130910549F4109211
:1006D000E1001092E00080E990E00E9423056DC0E7
:1006E000892B09F06AC081E090E09093E10080934B
:1006F000E00082EA90E00E9423055FC08E3609F098
:1007000058C0E4EEF0E08181898382818A831B8274
:10071000CE0109969F938F9385EB90E09F938F93E3
:10072000CE0101969F938F930E94790C89859A85BB
:100730000E944A040F900F900F900F900F900F900F
:10074000892B91F189859A850E942704BC0180E05C
:1007500090E00E944C066B017C0189E190E00E94D0
:10076000D00020E030E048EC52E4C701B6010E941E
:10077000A4059F938F937F936F9388E690E09F9358
:100780008F938E010F5F1F4F1F930F930E94570C83
:10079000C8010E9423058AE00E941F050FB6F89445
:1007A000DEBF0FBECDBF09C088EB90E00E942305DD
:1007B00004C088EC90E00E9423052A960FB6F894B6
:1007C000DEBF0FBECDBFDF91CF911F910F91FF9084
:1007D000EF90DF90CF9008951F920F920FB60F9277
:1007E00011242F933F934F935F936F937F938F9336
:1007F0009F93AF93BF93CF93EF93FF93CCB10E949E
:100800000C058C519F4FFC01C083CA3049F40E94F3
:100810004C0380E090E00E9411050E94160505C07F
:100820000E940C0501960E941105FF91EF91CF9156
:10083000BF91AF919F918F917F916F915F914F91F8
:100840003F912F910F900FBE0F901F9018950F930F
:100850001F93CF93DF938C0181E090E00E940B10F7
:10086000EC0189E190E00E94D000000F111F000F01
:10087000111FCE01801B910B8A3091051CF00E9444
:100880000B1003C040960E940B10DF91CF911F9177
:100890000F91089521E030E0049710F020E030E05F
:1008A000C90108950F931F93CF93DF938C0181E0CB
:1008B00090E00E940B10EC0189E190E00E94D000D2
:1008C0002496C731D10510F0CAE0D0E0BE0181E026
:1008D00090E00E941E1089E190E00E94D000B801D3
:1008E000CE010E941E1089E190E00E94D000DF91AD
:1008F000CF911F910F91089510B88CE080B90895A1
:1009000084EA86BF06B607FEFDCF089583B984E862
:1009100086BF06B607FEFDCF089583B984E886BF7B
:1009200006B607FEFDCF089583B984E886BF06B6F4
:1009300007FEFDCF089584EC86BF06B607FEFDCF07
:1009400083B1089584E886BF06B607FEFDCF83B164
:10095000089584E986BF08951F93CF93DF93D82F1E
:10096000162FC42F0E948004812F0E9486048D2F91
:100970000E948D040E9480048C2F0E9494040E9487
:100980009B04C82FD0E00E94A20494E996BF9E0168
:10099000382BC901DF91CF911F910895CF92DF923B
:1009A000EF92FF92E82ED62EF42E0E9480048D2D19
:1009B0000E9486048E2D0E948D040E9480048F2D3B
:1009C0000E9494040E949B04C82ED12CE12CF12C8F
:1009D000FE2CED2CDC2CCC240E949B04C82AFE2C7F
:1009E000ED2CDC2CCC240E94A20494E996BFA70134
:1009F0009601282BCA01B901FF90EF90DF90CF90AC
:100A000008958AB188698AB980B5866880BD83E314
:100A100089B910BCC09A08958091E2009091E300DA
:100A200008959093E3008093E2000895E4EEF0E0EF
:100A300084E291E01192E817F907E1F708955D9BD0
:100A4000FECF8CB908950F931F93CF93FC012081A3
:100A5000222349F08C01F801C1918F018C2F0E9453
:100A60001F05C111F8CFCF911F910F9108955058D4
:100A7000BB27AA270E944F050C94A0060E9492064D
:100A800038F00E94990620F039F49F3F19F426F4BB
:100A90000C948F060EF4E095E7FB0C948906E92F81
:100AA0000E94B10658F3BA176207730784079507C7
:100AB00020F079F4A6F50C94D3060EF4E0950B2EF5
:100AC000BA2FA02D0B01B90190010C01CA01A001A0
:100AD0001124FF27591B99F0593F50F4503E68F1FB
:100AE0001A16F040A22F232F342F4427585FF3CF3C
:100AF000469537952795A795F0405395C9F77EF40D
:100B00001F16BA0B620B730B840BBAF09150A1F055
:100B1000FF0FBB1F661F771F881FC2F70EC0BA0FDB
:100B2000621F731F841F48F4879577956795B79563
:100B3000F7959E3F08F0B0CF9395880F08F099275E
:100B4000EE0F9795879508950E94B8050C94A0061E
:100B50000E94990658F00E94920640F029F45F3FE7
:100B600029F00C94890651110C94D4060C948F062C
:100B70000E94B10668F39923B1F3552391F3951BB5
:100B8000550BBB27AA2762177307840738F09F5FAE
:100B90005F4F220F331F441FAA1FA9F335D00E2E1B
:100BA0003AF0E0E832D091505040E695001CCAF788
:100BB0002BD0FE2F29D0660F771F881FBB1F26174B
:100BC00037074807AB07B0E809F0BB0B802DBF0122
:100BD000FF2793585F4F3AF09E3F510578F00C94F1
:100BE00089060C94D4065F3FE4F3983ED4F38695CF
:100BF00077956795B795F7959F5FC9F7880F911D12
:100C00009695879597F90895E1E0660F771F881FFD
:100C1000BB1F621773078407BA0720F0621B730BB0
:100C2000840BBA0BEE1F88F7E09508950E941D060D
:100C30006894B1110C94D40608950E94B90688F006
:100C40009F5798F0B92F9927B751B0F0E1F0660F90
:100C5000771F881F991F1AF0BA95C9F714C0B130D1
:100C600091F00E94D306B1E008950C94D306672F4B
:100C7000782F8827B85F39F0B93FCCF38695779500
:100C80006795B395D9F73EF49095809570956195E9
:100C90007F4F8F4F9F4F0895E89409C097FB3EF414
:100CA00090958095709561957F4F8F4F9F4F9923B9
:100CB000A9F0F92F96E9BB279395F6958795779537
:100CC0006795B795F111F8CFFAF4BB0F11F460FFF7
:100CD0001BC06F5F7F4F8F4F9F4F16C0882311F04F
:100CE00096E911C0772321F09EE8872F762F05C063
:100CF000662371F096E8862F70E060E02AF09A95FE
:100D0000660F771F881FDAF7880F9695879597F9F2
:100D1000089597F99F6780E870E060E008959FEF7D
:100D200080EC089500240A94161617061806090682
:100D3000089500240A941216130614060506089551
:100D4000092E0394000C11F4882352F0BB0F40F4D9
:100D5000BF2B11F460FF04C06F5F7F4F8F4F9F4F19
:100D6000089557FD9058440F551F59F05F3F71F09B
:100D70004795880F97FB991F61F09F3F79F0879502
:100D80000895121613061406551FF2CF4695F1DF8B
:100D900008C0161617061806991FF1CF869571051B
:100DA000610508940895E894BB2766277727CB014F
:100DB00097F908950E94ED060C94A0060E949206F1
:100DC00038F00E94990620F0952311F00C948906C2
:100DD0000C948F0611240C94D4060E94B10670F373
:100DE000959FC1F3950F50E0551F629FF001729FD0
:100DF000BB27F00DB11D639FAA27F00DB11DAA1FDF
:100E0000649F6627B00DA11D661F829F2227B00D2B
:100E1000A11D621F739FB00DA11D621F839FA00DB6
:100E2000611D221F749F3327A00D611D231F849F06
:100E3000600D211D822F762F6A2F11249F5750405D
:100E40009AF0F1F088234AF0EE0FFF1FBB1F661FD8
:100E5000771F881F91505040A9F79E3F510580F0A1
:100E60000C9489060C94D4065F3FE4F3983ED4F3C7
:100E7000869577956795B795F795E7959F5FC1F745
:100E8000FE2B880F911D9695879597F90895A0E1FF
:100E9000B0E0EDE4F7E00C94E70A7C011B016A0185
:100EA000FC0117821682838181FF44C39E012F5F5C
:100EB0003F4F3901F7019381F10193FD859193FF34
:100EC00081911F01882309F431C3853239F493FDE0
:100ED000859193FF81911F01853239F4B70190E02C
:100EE0000E941B0C56016501E5CF10E0512C912C9E
:100EF000FFE1F915D8F08B3279F038F4803279F0CF
:100F00008332A1F4F92DF0612EC08D3261F080336F
:100F100069F4292D21602DC0392D3260932E892D41
:100F20008460982E2AC0E92DE86015C097FC2DC07A
:100F300020ED280F2A3088F496FE06C03AE0139F71
:100F4000200D1124122F19C08AE0589E200D112463
:100F5000522EE92DE0629E2E10C08E3231F496FCA6
:100F6000E5C2F92DF0649F2E08C08C3621F4292D9E
:100F70002068922E02C0883641F4F10193FD8591DC
:100F800093FF81911F018111B3CF9BEB980F933099
:100F900020F4992D9061805E07C09BE9980F9330F3
:100FA00008F066C1992D9F7E96FF16E09F73992EDB
:100FB000853619F49064992E08C0863621F4392FAD
:100FC0003068932E02C01111115097FE07C01C33D8
:100FD00050F444244394410E27E00BC0183038F0FD
:100FE00027E017E005C027E09CE3492E02C0212F2F
:100FF000412C560184E0A80EB11CF601608171817C
:1010000082819381042DA3010E942D0B6C01F98133
:10101000FC87F0FF02C0F3FF06C091FC06C092FE01
:1010200006C000E205C00DE203C00BE201C000E013
:101030008C858C7019F001115AC29BC297FE10C0AA
:101040004C0CFC85F4FF04C08A81813309F44A9476
:10105000141474F528E0241578F588E0482E2CC087
:1010600096FC2AC0812F90E08C159D059CF03CEFEA
:10107000C3163FEFD30674F0892D8068982E0AC0FE
:10108000E2E0F0E0EC0FFD1FE10FF11D8081803305
:1010900019F411501111F4CF97FE0EC0442443945B
:1010A000410E812F90E0C816D9062CF41C1904C0FB
:1010B0004424439401C010E097FE06C01C141D0494
:1010C00034F4C601019605C085E090E002C081E0DD
:1010D00090E001110196112331F0212F30E02F5FB4
:1010E0003F4F820F931F252D30E08217930714F492
:1010F000581A01C0512C892D897049F4552039F0B6
:10110000B70180E290E00E941B0C5A94F7CF0023B5
:1011100029F0B701802F90E00E941B0C93FC09C0BE
:10112000552039F0B70180E390E00E941B0C5A94DF
:10113000F7CF97FE4CC04601D7FE02C0812C912C00
:10114000C60188199909F301E80FF91FFE87ED8799
:10115000960124193109388B2F87012F10E0119542
:10116000019511093FEF8316930629F4B7018EE22A
:1011700090E00E941B0CC814D9044CF08F8598890C
:101180008815990524F4ED85FE85818101C080E3F1
:10119000F1E08F1A91082D853E852F5F3F4F3E87E6
:1011A0002D87801691062CF0B70190E00E941B0C51
:1011B000D9CFC814D90441F49A81963320F49533D9
:1011C00019F43C8534FF81E3B70190E04EC08A8179
:1011D000813319F09C859F7E9C87B70190E00E9427
:1011E0001B0C111105C094FC18C085E690E017C0D7
:1011F000B7018EE290E00E941B0C1E5F82E001E0CE
:10120000080FF301E80FF11D8081B70190E00E9403
:101210001B0C802F0113F3CFE6CF85E490E0B701DC
:101220000E941B0CD7FC06C0C114D10441F4EC850C
:10123000E4FF05C0D194C194D1088DE201C08BE2D6
:10124000B70190E00E941B0C80E32AE0C216D10493
:101250002CF08F5FFAE0CF1AD108F7CFB70190E0FA
:101260000E941B0CB701C601C0960E941B0C54C102
:10127000833631F0833779F0833509F056C020C0CA
:10128000560132E0A30EB11CF6018081898301E092
:1012900010E0630112C05601F2E0AF0EB11CF6017E
:1012A000C080D18096FE03C0612F70E002C06FEF56
:1012B0007FEFC6010E94100C8C01F92DFF7714C03E
:1012C000560122E0A20EB11CF601C080D18096FE2C
:1012D00003C0612F70E002C06FEF7FEFC6010E9474
:1012E000050C8C01F92DF0689F2EF3FD1AC0852D99
:1012F00090E008171907A8F4B70180E290E00E9477
:101300001B0C5A94F4CFF60197FC859197FE8191BE
:101310006F01B70190E00E941B0C51105A940150CC
:1013200011090115110579F7F7C0843611F08936D6
:1013300061F5560197FE09C024E0A20EB11CF6012A
:1013400060817181828193810AC0F2E0AF0EB11C8D
:10135000F60160817181072E000C880B990BF92D25
:10136000FF769F2E97FF09C09095809570956195A7
:101370007F4F8F4F9F4FF0689F2E2AE030E0A301F0
:101380000E94920CC82EC6183FC0092D853721F443
:101390000F7E2AE030E01DC0097F8F3691F018F4EF
:1013A000883559F0C3C0803719F0883711F0BEC0B6
:1013B000006104FF09C0046007C094FE08C0066015
:1013C00006C028E030E005C020E130E002C020E1A6
:1013D00032E0560107FF09C084E0A80EB11CF601F7
:1013E000608171818281938108C0F2E0AF0EB11CEF
:1013F000F6016081718180E090E0A3010E94920C6F
:10140000C82EC6180F77902E96FE0BC0092D0E7FA2
:10141000C11650F494FE0AC092FC08C0092D0E7E3D
:1014200005C0DC2C092D03C0DC2C01C0D12E04FF2B
:101430000DC0FE01EC0DF11D8081803311F4097E99
:1014400009C002FF06C0D394D39404C0802F8678CD
:1014500009F0D39403FD11C000FF06C01C2DD51464
:1014600080F4150D1D190DC0D51458F4B70180E294
:1014700090E00E941B0CD394F7CFD51410F45D18A4
:1014800001C0512C04FF10C0B70180E390E00E941E
:101490001B0C02FF17C001FD03C088E790E002C0EB
:1014A00088E590E0B7010CC0802F867859F001FFE5
:1014B00002C08BE201C080E207FD8DE2B70190E03F
:1014C0000E941B0CC11638F4B70180E390E00E9423
:1014D0001B0C1150F7CFCA94F301EC0DF11D808164
:1014E000B70190E00E941B0CC110F5CF15C0F4E0CD
:1014F000F51560F584E0581A93FE1FC0011127C04E
:101500002C8523FF2AC004E510E0392D3071932E7D
:10151000F8018491811124C0552009F4E4CCB7016D
:1015200080E290E00E941B0C5A94F6CFF70186816E
:10153000978126C08FEF9FEF23C0B70180E290E034
:101540000E941B0C5A945110F8CFD8CF512CB701E0
:10155000802F90E00E941B0CD3CF08E510E0D5CF80
:1015600091108052B70190E00E941B0C0F5F1F4F3B
:10157000CFCF23E0251510F483E0BDCF512CC0CF91
:101580006096E2E10C94030BDB018F939F930E9422
:10159000D40ABF91AF91A29F800D911DA39F900D82
:1015A000B29F900D112408950E941E0BA59F900DCF
:1015B000B49F900DA49F800D911D11240895B7FF35
:1015C0000C94D40A0E94D40A821B930B08952F9284
:1015D0003F924F925F926F927F928F929F92AF92C3
:1015E000BF92CF92DF92EF92FF920F931F93CF9310
:1015F000DF93CDB7DEB7CA1BDB0B0FB6F894DEBFA7
:101600000FBECDBF09942A88398848885F846E84CC
:101610007D848C849B84AA84B984C884DF80EE8016
:10162000FD800C811B81AA81B981CE0FD11D0FB61F
:10163000F894DEBF0FBECDBFED010895A29FB001AB
:10164000B39FC001A39F700D811D1124911DB29FF6
:10165000700D811D1124911D0895283008F027E098
:101660003327DA01990F311D87FD916000966105DE
:10167000710539F432602E5F3D9330E32A95E1F72E
:1016800008959F3F30F080387105610509F03C5F97
:101690003C5F3D93913008F08068911DDF93CF93BC
:1016A0001F930F93FF92EF92192F987F9695E92F32
:1016B00096959695E90FFF27EA54FF4F9927332710
:1016C000EE24FF24A701E70105900894079428F46D
:1016D000360FE71EF81E491F511D660F771F881F22
:1016E000991F0694A1F70590079428F4E70EF81EB9
:1016F000491F561FC11D770F881F991F661F06942B
:10170000A1F70590079428F4F80E491F561FC71F2C
:10171000D11D880F991F661F771F0694A1F70590AA
:10172000079420F4490F561FC71FD81F990F661F33
:10173000771F881F0694A9F784911095177041F0C0
:10174000D695C79557954795F794E7941A95C1F79D
:10175000ECE5F0E0689415901591359165919591BF
:1017600005907FE27395E118F10A430B560BC90B04
:10177000D009C0F7E10CF11E431F561FC91FD01D31
:101780007EF4703311F48A95E6CFE894015030F07E
:10179000080F0AF40027021708F4202F2395022FC0
:1017A0007A3328F079E37D932A95E9F710C07D9389
:1017B0002A9589F606949795679537951795179406
:1017C000E118F10A430B560BC90BD00998F0239589
:1017D0007E9173957A3308F070E37C932013B8F709
:1017E0007E9170617D9330F0839571E37D9370E31A
:1017F0002A95E1F71124EF90FF900F911F91CF915F
:10180000DF91992787FD90950895FC01059061501F
:1018100070400110D8F7809590958E0F9F1F089506
:10182000FC016150704001900110D8F780959095AF
:101830008E0F9F1F08950F931F93CF93DF93FB018C
:10184000238121FD03C08FEF9FEF2CC022FF16C024
:1018500046815781248135814217530744F4A08182
:10186000B1819D012F5F3F4F318320838C9326816F
:1018700037812F5F3F4F3783268314C08B01EC01E4
:10188000FB010084F185E02D0995892BE1F6D80153
:1018900016968D919C911797019617969C938E930F
:1018A0001697CE01DF91CF911F910F910895AEE071
:1018B000B0E0EDE5FCE00C94F50A0D891E8986E0A8
:1018C0008C831A8309838FEF9FE79E838D83AE01FC
:1018D000475E5F4F6F89788DCE0101960E94470762
:1018E000EF81F885E00FF11F10822E96E4E00C9452
:1018F000110BAEE0B0E0EFE7FCE00C94F70A85E0F6
:101900008C838B899C899A838983AE01495E5F4F62
:101910006D897E89CE0101960E948C0E2E96E2E0A2
:101920000C94130BFA01AA27283051F1203181F1D0
:10193000E8946F936E7F6E5F7F4F8F4F9F4FAF4FD7
:10194000B1E03ED0B4E03CD0670F781F891F9A1FEA
:10195000A11D680F791F8A1F911DA11D6A0F711D9E
:10196000811D911DA11D20D009F468943F912AE0AA
:10197000269F11243019305D3193DEF6CF01089592
:10198000462F4770405D4193B3E00FD0C9F7F6CFC3
:10199000462F4F70405D4A3318F0495D31FD40528B
:1019A000419302D0A9F7EACFB4E0A6959795879521
:1019B00077956795BA95C9F7009761057105089500
:1019C0009B01AC010A2E06945795479537952795AC
:1019D000BA95C9F7620F731F841F951FA01D089544
:1019E00020FD09C0FC0123FD05C022FF02C0738356
:1019F000628351834083089544FD17C046FD17C09C
:101A0000AB01BC01DA01FB01AA0FBB1FEE1FFF1FD8
:101A10001094D1F74A0F5B1F6E1F7F1FCB01BA01D5
:101A2000660F771F881F991F09C033E001C034E09B
:101A3000660F771F881F991F3150D1F7620F711DF4
:101A4000811D911D08950F931F93CF93DF938C01F8
:101A5000C8010E94B10FEC0197FD08C00E949D0FC4
:101A6000892BB1F7B801CE010E94EF0FCE01DF91B3
:101A7000CF911F910F9108958F929F92AF92BF9235
:101A8000EF92FF920F931F93CF93DF938C01D62F8A
:101A90007A01B22E0E94B10F9C0133272B323105FF
:101AA00031F02D32310561F48B2D8068B82ED15084
:101AB00011F480E068C0C8010E94B10F97FDF9CF12
:101AC000CB2DCD7F2B2D207309F58033F9F4AA247B
:101AD000AA94AD0E09F443C0C8010E94B10F97FD4E
:101AE0003EC09C012F7D33272835310549F4C2645F
:101AF000D250A9F1C8010E94B10F97FF07C02FC0B3
:101B0000B6FE02C0C26001C0C261DA2D812C912CE8
:101B1000540120ED280F283080F0C4FF04C0B80124
:101B20000E94EF0F19C02A3040F0C6FFF8CF2F7D7A
:101B30003FEE320F363098F727504C2FC501B401D5
:101B40000E94FC0C4B015C01C260D15059F0C801ED
:101B50000E94B10F97FFDDCFC1FD04C0AACF812C39
:101B6000912C5401C7FF08C0B094A0949094809425
:101B7000811C911CA11CB11C2C2FB501A401C70113
:101B80000E94F00C81E0DF91CF911F910F91FF90A7
:101B9000EF90BF90AF909F908F900895A0E2B0E03B
:101BA000E4EDFDE00C94EA0A5C01962E7A01F9015D
:101BB0008E010F5F1F4F680180E2D8011D928A9548
:101BC000E9F7D50113968C9080E090E0612C712CA0
:101BD00030E061E070E083FC259183FE21918F016C
:101BE000522E211103C080E090E092C02E3511F4F6
:101BF000009751F1432F50E0481759073CF42D3519
:101C000059F12D3219F4772009F103C0772009F436
:101C10006AC0452D469546954695D601A40FB11D3F
:101C2000452D47708B0102C0000F111F4A95E2F746
:101C3000A8015C91452B4C93651459F0561410F48F
:101C40005394E7CF5A94E5CF31E004C077247394DE
:101C500001C0712C0196BFCF772019F08E81806270
:101C60008E83311103C08824839417C0F6019E012E
:101C70002F5D3F4F8081809581932E173F07D1F7CD
:101C8000F2CFE114F10429F0D7018C93F7013196DA
:101C90007F019A94812C9920F9F0C5010E94B10F1F
:101CA00097FD18C0FC01FF2723E0F595E7952A95DD
:101CB000E1F7EC0DFD1D208130E0AC0147705527A8
:101CC00002C0359527954A95E2F720FDDACFB50198
:101CD0000E94EF0F811087CFE114F10411F0D701BA
:101CE0001C92C80115C0422F469546954695D601CF
:101CF000A40FB11D422F47708B0102C0000F111FAE
:101D00004A95E2F7A8015C91452B4C93622EA2CF35
:101D1000A096EFE00C94060BA0E0B0E0E2E9FEE054
:101D20000C94EA0A6C01EB015A01FC01178216823D
:101D3000512CF601E380FE01E3FC8591E3FE8191E5
:101D4000182FEF01882309F4EEC090E00E949D0F48
:101D5000892B21F0C6010E94230DEBCF153241F4EF
:101D6000FE01E3FC1591E3FE1191EF01153281F4C0
:101D7000C6010E94B10F97FDD4C0412F50E09C01D5
:101D8000332724173507A9F2B6010E94EF0FCBC005
:101D90001A3239F4E3FC1591E3FE1191EF0101E0F1
:101DA00001C000E0F12C20ED210F2A3080F4026008
:101DB0006F2D70E080E090E040E20E94FC0CF62E77
:101DC000FE01E3FC1591E3FE1191EF01ECCF01FF61
:101DD00003C0F11003C0A7C0FF24FA94183619F00D
:101DE0001C3651F010C0FE01E3FC1591E3FE119189
:101DF000EF01183641F408600460FE01E3FC159120
:101E0000E3FE1191EF01112309F48DC0612F70E001
:101E100086E591E00E94A60F892B09F484C000FD9D
:101E200007C0F50180809180C50102965C0102C067
:101E3000812C912C1E3651F4F6014681578160E0C9
:101E400070E0202FC4010E94F00C73CF1336A9F468
:101E500001FD02C0FF24F394C6010E94B10F97FD5B
:101E600060C08114910429F0F4018083C4010196BB
:101E70004C01FA94F110F0CF50C01B3559F49E017B
:101E8000A4016F2DC6010E94CE0DEC01892B09F033
:101E900044C03EC0C6010E94230D97FD42C01F36BC
:101EA00061F128F4143639F1193651F128C013378D
:101EB00071F0153701F123C08114910429F0F40168
:101EC0006082C40101964C01FA94FF2071F0C601B2
:101ED0000E94B10F3C0197FD08C00E949D0F892B05
:101EE00059F3B601C3010E94EF0F81149104A9F0C8
:101EF000F401108212C0006203C0006101C00064DE
:101F0000202FA4016F2DC6010E943C0D811105C038
:101F1000F6018381807329F406C000FD0ACF539433
:101F200008CF552019F0852D90E002C08FEF9FEF6C
:101F3000CDB7DEB7EFE00C94060B91110C940810AE
:101F4000803219F089508550C8F70895FC0105903A
:101F5000061621F00020D9F7C00108953197CF016E
:101F60000895CF93DF93EC012B8120FF33C026FF30
:101F70000AC02F7B2B838E819F8101969F838E8346
:101F80008A8190E029C022FF0FC0E881F981808119
:101F9000082E000C990B009719F420622B831AC0AD
:101FA0003196F983E8830EC0EA85FB85099597FF92
:101FB00009C02B81019611F080E201C080E1822BE3
:101FC0008B8308C02E813F812F5F3F4F3F832E833D
:101FD000992702C08FEF9FEFDF91CF910895FB010A
:101FE000238120FF12C026FD10C08F3F3FEF9307D3
:101FF00061F082832F7D20642383268137812150E5
:10200000310937832683992708958FEF9FEF08952D
:10201000992788270895A8E1B0E042E050E00C94A9
:102020002510262FE199FECF9FBB8EBB2DBB0FB68F
:10203000F894E29AE19A0FBE019608950E94111059
:10204000272F0C941210DC01CB01FC01E199FECF8B
:1020500006C0FFBBEEBBE09A31960DB20D92415027
:0A2060005040B8F70895F894FFCF40
:10206A002568750025686900252E3266004552529A
:10207A004F522100424D503238302077726F6E67CE
:10208A0020494400303A00313A00323A00333A00EB
:10209A00524553554D452053414D504C494E4720CA
:1020AA000A0050415553494E472053414D504C491F
:1020BA004E47200A00256400494E56414C494420A7
:1020CA00494E444558200A00494E56414C4944203D
:0A20DA00434F4D4D414E44200A00D3
:00000001FF
