:100000000C94AB000C94C8000C94C8000C94C8006D
:100010000C94C8000C94C8000C94C8000C94C80040
:100020000C94C8000C94C8000C94C8000C94C80030
:100030000C94C8000C94C8000C94C8000C94C80020
:100040000C94C8000C94C8000C94C8000C94C80010
:100050000C94C8006E616E00696E660000407A10F4
:10006000F35A00A0724E18090010A5D4E80000E869
:100070007648170000E40B54020000CA9A3B0000C7
:1000800000E1F505000080969800000040420F0056
:100090000000A08601000000102700000000E80317
:1000A000000000006400000000000A0000000000E2
:1000B0000100000000002C76D888DC674F0823DFA1
:1000C000C1DFAE59E1B1B796E5E3E453C63AE65174
:1000D000997696E8E6C28426EB898C9B62ED407C9B
:1000E0006FFCEFBC9C9F40F2BAA56FA5F490055A37
:1000F0002AF75C936B6CF9676DC11BFCE0E40D475C
:10010000FEF520E6B500D0ED902E0300943577057E
:100110000080841E080000204E0A000000C80C3336
:100120003333330F986E12831141EF8D2114893BC5
:10013000E65516CFFEE6DB18D1844B381BF77C1D45
:10014000901DA4BBE424203284725E228100C9F198
:1001500024ECA1E53D2711241FBECFE5D8E0DEBF8A
:10016000CDBF10E0A0E6B0E0E8E4F7E102C0059002
:100170000D92A438B107D9F720E0A4E8B0E001C09F
:100180001D92AA38B207E1F70E9473020C94A20BE9
:100190000C9400009C0183E083BF83E807C082BF0A
:1001A00098B7916098BF08B600FEFDCF2150310985
:1001B000B0F713BE0895CF930E9459038EEE0E94AC
:1001C0005F0380ED0E9466030E9459038FEE0E9438
:1001D0006D030E947B03C82F0E94820381E090E0A0
:1001E000C83511F080E090E0CF9108954FEE6EEEAB
:1001F00088E80E94850390938900809388004FEEE1
:100200006EEE8AE80E9485039093870080938600B3
:100210004FEE6EEE8CE80E948503909385008093EC
:10022000840008950E9459038EEE0E945F0384EFBC
:100230000E94660383E90E9466030E948203089578
:100240000E94DB00009731F00E94F6000E9412012C
:1002500081E090E008958F929F92AF92BF92CF92EB
:10026000DF92EF92FF920F931F934FEE6EEE8AEFA5
:100270000E94A703009188001091890020E030E0DF
:10028000C72ED82EE92EFF24E7FCFA94C01AD10A13
:10029000E20AF30ADC01CB01689416F8B595A7953C
:1002A000979587951694D1F7000F111F221F331FC2
:1002B0004C015D01801A910AA20AB30AA5019401BA
:1002C000A0918600B09187000E9482094B015C01D9
:1002D000072E7BE0B594A794979487947A95D1F7ED
:1002E000702DA7019601C701B6010E9467099B0105
:1002F000AC01012E1CE055954795379527951A9529
:10030000D1F7102DA0918400B09185000E94820940
:10031000DC01CB01072E7EE0B595A79597958795D3
:100320007A95D1F7702D880D991DAA1DBB1D8C01E2
:100330009D01000F111F221F331F000F111F221FCD
:10034000331F800F911FA21FB31F80589F4FAF4FC5
:10035000BF4F692F7A2F8B2F992787FD9A950E947F
:10036000F10420E030E048EC52E40E9447041F9181
:100370000F91FF90EF90DF90CF90BF90AF909F9044
:100380008F90089526E636E646EE5FE30E947D05EF
:1003900020E030E040E052E40E94DB030895662351
:1003A00011F0C09A01C0C098C1988BBB8FEF8ABB77
:1003B000C29A000000000000C2980895C098C19A37
:1003C0001ABA99B3C29A0000000000001ABA99B391
:1003D000C29899239CF30E94CF010895B89AB99AC4
:1003E000BA9A80E190E00E94CA0060E080E30E9437
:1003F000CF0185E090E00E94CA0060E080E30E94A7
:10040000CF0181E090E00E94CA0060E08CE30E948E
:10041000DE0160E08CE00E94DE0160E086E00E9488
:10042000DE0160E081E00E94DE010895CF93C62FD7
:1004300098E2899FC00D112460E082E00E94DE01F5
:10044000CC2331F060E084E10E94DE01C150D1F79D
:10045000CF910895CF93DF93EC012196FC01808129
:10046000882331F061E00E94DE0189918111FACF89
:10047000DF91CF910895EF92FF920F931F93CF9347
:10048000DF93CDB7DEB72F970FB6F894DEBF0FBE60
:10049000CDBFF42EE22E9F938F937F936F9388E6C8
:1004A00090E09F938F938E010F5F1F4F1F930F93C9
:1004B0000E94FA0A6E2D8F2D0E941602C8010E941A
:1004C0002A020FB6F894DEBF0FBECDBF2F960FB62F
:1004D000F894DEBF0FBECDBFDF91CF911F910F917A
:1004E000FF90EF9008950E94EE010E9455030E9434
:1004F0002001892B89F460E080E00E9416028DE6DD
:1005000090E00E942A0260E081E00E94160284E7E7
:1005100090E00E942A02FFCF84EF91E00E94CA007F
:100520000E942B010E94C20120E030E048EC52E41E
:100530000E947D050E94B904CB010E942B0389E132
:1005400090E00E94CA0080E090E00E940803BC0195
:1005500080E090E00E94EF0420E030E048EC52E4BC
:100560000E94470420E030E040E050E00E943B025F
:1005700089E190E00E94CA0081E090E00E940803B7
:10058000BC0180E090E00E94EF0420E030E048EC05
:1005900052E40E94470428E030E040E050E00E942E
:1005A0003B0289E190E00E94CA0082E090E00E9454
:1005B0000803BC0180E090E00E94EF0420E030E0FE
:1005C00048EC52E40E94470420E030E041E050E073
:1005D0000E943B0289E190E00E94CA0083E090E023
:1005E0000E940803BC0180E090E00E94EF0420E03C
:1005F00030E048EC52E40E94470428E030E041E05B
:1006000050E00E943B0288EB9BE00E94CA0088CF2A
:100610000F931F93CF93DF938C0181E090E00E94B2
:100620007A0BEC0189E190E00E94CA00000F111FD3
:10063000000F111FCE01801B910B8A3091051CF019
:100640000E947A0B03C040960E947A0BDF91CF91F3
:100650001F910F9108950F931F93CF93DF938C01F8
:1006600081E090E00E947A0BEC0189E190E00E9429
:10067000CA002496C731D10510F0CAE0D0E0BE010F
:1006800081E090E00E948D0B89E190E00E94CA0019
:10069000B801CE010E948D0B89E190E00E94CA0052
:1006A000DF91CF911F910F91089510B88CE080B920
:1006B000089584EA86BF06B607FEFDCF089583B984
:1006C00084E886BF06B607FEFDCF089583B984E8A7
:1006D00086BF06B607FEFDCF089583B984E886BFBE
:1006E00006B607FEFDCF089584EC86BF06B607FE6A
:1006F000FDCF83B1089584E886BF06B607FEFDCF1F
:1007000083B1089584E986BF08951F93CF93DF9343
:10071000D82F162FC42F0E945903812F0E945F03E8
:100720008D2F0E9466030E9459038C2F0E946D0337
:100730000E947403C82FD0E00E947B0394E996BF07
:100740009E01382BC901DF91CF911F910895CF925F
:10075000DF92EF92FF92E82ED62EF42E0E945903DC
:100760008D2D0E945F038E2D0E9466030E94590307
:100770008F2D0E946D030E947403C82ED12CE12C92
:10078000F12CFE2CED2CDC2CCC240E947403C82A06
:10079000FE2CED2CDC2CCC240E947B0394E996BF2C
:1007A000A7019601282BCA01B901FF90EF90DF90B5
:1007B000CF9008955058BB27AA270E94F2030C94AB
:1007C00043050E94350538F00E943C0520F039F4BD
:1007D0009F3F19F426F40C9432050EF4E095E7FBE4
:1007E0000C942C05E92F0E94540558F3BA176207A0
:1007F00073078407950720F079F4A6F50C94760525
:100800000EF4E0950B2EBA2FA02D0B01B90190012B
:100810000C01CA01A0011124FF27591B99F0593F6F
:1008200050F4503E68F11A16F040A22F232F342FB7
:100830004427585FF3CF469537952795A795F04005
:100840005395C9F77EF41F16BA0B620B730B840B1A
:10085000BAF09150A1F0FF0FBB1F661F771F881FD2
:10086000C2F70EC0BA0F621F731F841F48F487952A
:1008700077956795B795F7959E3F08F0B0CF93951C
:10088000880F08F09927EE0F9795879508950E9495
:100890005B040C9443050E943C0558F00E9435050A
:1008A00040F029F45F3F29F00C942C0551110C9471
:1008B00077050C9432050E94540568F39923B1F32F
:1008C000552391F3951B550BBB27AA276217730776
:1008D000840738F09F5F5F4F220F331F441FAA1F0A
:1008E000A9F335D00E2E3AF0E0E832D091505040C6
:1008F000E695001CCAF72BD0FE2F29D0660F771F74
:10090000881FBB1F261737074807AB07B0E809F059
:10091000BB0B802DBF01FF2793585F4F3AF09E3FDE
:10092000510578F00C942C050C9477055F3FE4F3A7
:10093000983ED4F3869577956795B795F7959F5F21
:10094000C9F7880F911D9695879597F90895E1E06D
:10095000660F771F881FBB1F621773078407BA07CC
:1009600020F0621B730B840BBA0BEE1F88F7E09527
:1009700008950E94C0046894B1110C9477050895FD
:100980000E945C0588F09F5798F0B92F9927B751BE
:10099000B0F0E1F0660F771F881F991F1AF0BA9523
:1009A000C9F714C0B13091F00E947605B1E0089506
:1009B0000C947605672F782F8827B85F39F0B93FF8
:1009C000CCF3869577956795B395D9F73EF49095D6
:1009D0008095709561957F4F8F4F9F4F0895E89454
:1009E00009C097FB3EF490958095709561957F4F77
:1009F0008F4F9F4F9923A9F0F92F96E9BB27939525
:100A0000F695879577956795B795F111F8CFFAF434
:100A1000BB0F11F460FF1BC06F5F7F4F8F4F9F4F65
:100A200016C0882311F096E911C0772321F09EE8C3
:100A3000872F762F05C0662371F096E8862F70E029
:100A400060E02AF09A95660F771F881FDAF7880F03
:100A50009695879597F9089597F99F6780E870E0D4
:100A600060E008959FEF80EC089500240A94161624
:100A7000170618060906089500240A94121613068C
:100A8000140605060895092E0394000C11F488231A
:100A900052F0BB0F40F4BF2B11F460FF04C06F5F36
:100AA0007F4F8F4F9F4F089557FD9058440F551F0C
:100AB00059F05F3F71F04795880F97FB991F61F0E0
:100AC0009F3F79F087950895121613061406551F57
:100AD000F2CF4695F1DF08C0161617061806991FC3
:100AE000F1CF86957105610508940895E894BB27B8
:100AF00066277727CB0197F908950E9490050C94FB
:100B000043050E94350538F00E943C0520F09523EE
:100B100011F00C942C050C94320511240C947705DB
:100B20000E94540570F3959FC1F3950F50E0551F37
:100B3000629FF001729FBB27F00DB11D639FAA2732
:100B4000F00DB11DAA1F649F6627B00DA11D661F81
:100B5000829F2227B00DA11D621F739FB00DA11DA2
:100B6000621F839FA00D611D221F749F3327A00D5C
:100B7000611D231F849F600D211D822F762F6A2FF8
:100B800011249F5750409AF0F1F088234AF0EE0F5D
:100B9000FF1FBB1F661F771F881F91505040A9F78A
:100BA0009E3F510580F00C942C050C9477055F3F17
:100BB000E4F3983ED4F3869577956795B795F795C6
:100BC000E7959F5FC1F7FE2B880F911D969587953E
:100BD00097F90895A0E1B0E0E0EFF5E00C948A0900
:100BE0007C011B016A01FC0117821682838181FF4F
:100BF00044C39E012F5F3F4F3901F7019381F101FB
:100C000093FD859193FF81911F01882309F431C3DE
:100C1000853239F493FD859193FF81911F018532CF
:100C200039F4B70190E00E94BE0A56016501E5CF94
:100C300010E0512C912CFFE1F915D8F08B3279F0AE
:100C400038F4803279F08332A1F4F92DF0612EC0AE
:100C50008D3261F0803369F4292D21602DC0392D4A
:100C60003260932E892D8460982E2AC0E92DE86089
:100C700015C097FC2DC020ED280F2A3088F496FE71
:100C800006C03AE0139F200D1124122F19C08AE0EC
:100C9000589E200D1124522EE92DE0629E2E10C088
:100CA0008E3231F496FCE5C2F92DF0649F2E08C017
:100CB0008C3621F4292D2068922E02C0883641F40A
:100CC000F10193FD859193FF81911F018111B3CFB4
:100CD0009BEB980F933020F4992D9061805E07C0B4
:100CE0009BE9980F933008F066C1992D9F7E96FF7F
:100CF00016E09F73992E853619F49064992E08C0DA
:100D0000863621F4392F3068932E02C0111111500C
:100D100097FE07C01C3350F444244394410E27E04F
:100D20000BC0183038F027E017E005C027E09CE33F
:100D3000492E02C0212F412C560184E0A80EB11C7F
:100D4000F6016081718182819381042DA3010E944B
:100D5000D0096C01F981FC87F0FF02C0F3FF06C0E7
:100D600091FC06C092FE06C000E205C00DE203C081
:100D70000BE201C000E08C858C7019F001115AC2A1
:100D80009BC297FE10C04C0CFC85F4FF04C08A8106
:100D9000813309F44A94141474F528E0241578F585
:100DA00088E0482E2CC096FC2AC0812F90E08C153C
:100DB0009D059CF03CEFC3163FEFD30674F0892DE0
:100DC0008068982E0AC0E2E0F0E0EC0FFD1FE10F12
:100DD000F11D8081803319F411501111F4CF97FE69
:100DE0000EC044244394410E812F90E0C816D906CA
:100DF0002CF41C1904C04424439401C010E097FE55
:100E000006C01C141D0434F4C601019605C085E01B
:100E100090E002C081E090E001110196112331F0D1
:100E2000212F30E02F5F3F4F820F931F252D30E0A1
:100E30008217930714F4581A01C0512C892D897018
:100E400049F4552039F0B70180E290E00E94BE0AD3
:100E50005A94F7CF002329F0B701802F90E00E9429
:100E6000BE0A93FC09C0552039F0B70180E390E039
:100E70000E94BE0A5A94F7CF97FE4CC04601D7FE97
:100E800002C0812C912CC60188199909F301E80F41
:100E9000F91FFE87ED87960124193109388B2F87BA
:100EA000012F10E01195019511093FEF831693066C
:100EB00029F4B7018EE290E00E94BE0AC814D9045A
:100EC0004CF08F8598898815990524F4ED85FE8569
:100ED000818101C080E3F1E08F1A91082D853E8564
:100EE0002F5F3F4F3E872D87801691062CF0B7016C
:100EF00090E00E94BE0AD9CFC814D90441F49A8167
:100F0000963320F4953319F43C8534FF81E3B7011F
:100F100090E04EC08A81813319F09C859F7E9C872A
:100F2000B70190E00E94BE0A111105C094FC18C0E0
:100F300085E690E017C0B7018EE290E00E94BE0AFD
:100F40001E5F82E001E0080FF301E80FF11D8081D0
:100F5000B70190E00E94BE0A802F0113F3CFE6CFC5
:100F600085E490E0B7010E94BE0AD7FC06C0C11418
:100F7000D10441F4EC85E4FF05C0D194C194D108BB
:100F80008DE201C08BE2B70190E00E94BE0A80E3CF
:100F90002AE0C216D1042CF08F5FFAE0CF1AD108F4
:100FA000F7CFB70190E00E94BE0AB701C601C09614
:100FB0000E94BE0A54C1833631F0833779F08335FD
:100FC00009F056C020C0560132E0A30EB11CF60154
:100FD0008081898301E010E0630112C05601F2E0D4
:100FE000AF0EB11CF601C080D18096FE03C0612F08
:100FF00070E002C06FEF7FEFC6010E94B30A8C0160
:10100000F92DFF7714C0560122E0A20EB11CF601A3
:10101000C080D18096FE03C0612F70E002C06FEFE8
:101020007FEFC6010E94A80A8C01F92DF0689F2E5F
:10103000F3FD1AC0852D90E008171907A8F4B70131
:1010400080E290E00E94BE0A5A94F4CFF60197FC29
:10105000859197FE81916F01B70190E00E94BE0AD1
:1010600051105A94015011090115110579F7F7C073
:10107000843611F0893661F5560197FE09C024E0E7
:10108000A20EB11CF60160817181828193810AC038
:10109000F2E0AF0EB11CF60160817181072E000CE9
:1010A000880B990BF92DFF769F2E97FF09C090951D
:1010B0008095709561957F4F8F4F9F4FF0689F2E61
:1010C0002AE030E0A3010E941C0BC82EC6183FC0C6
:1010D000092D853721F40F7E2AE030E01DC0097FFD
:1010E0008F3691F018F4883559F0C3C0803719F065
:1010F000883711F0BEC0006104FF09C0046007C05A
:1011000094FE08C0066006C028E030E005C020E17B
:1011100030E002C020E132E0560107FF09C084E060
:10112000A80EB11CF601608171818281938108C093
:10113000F2E0AF0EB11CF6016081718180E090E0B9
:10114000A3010E941C0BC82EC6180F77902E96FE86
:101150000BC0092D0E7FC11650F494FE0AC092FCFC
:1011600008C0092D0E7E05C0DC2C092D03C0DC2C27
:1011700001C0D12E04FF0DC0FE01EC0DF11D8081D8
:10118000803311F4097E09C002FF06C0D394D394C2
:1011900004C0802F867809F0D39403FD11C000FFAE
:1011A00006C01C2DD51480F4150D1D190DC0D514C5
:1011B00058F4B70180E290E00E94BE0AD394F7CFC2
:1011C000D51410F45D1801C0512C04FF10C0B701F4
:1011D00080E390E00E94BE0A02FF17C001FD03C039
:1011E00088E790E002C088E590E0B7010CC0802F4E
:1011F000867859F001FF02C08BE201C080E207FD52
:101200008DE2B70190E00E94BE0AC11638F4B70122
:1012100080E390E00E94BE0A1150F7CFCA94F30118
:10122000EC0DF11D8081B70190E00E94BE0AC11053
:10123000F5CF15C0F4E0F51560F584E0581A93FE7B
:101240001FC0011127C02C8523FF2AC004E510E030
:10125000392D3071932EF8018491811124C05520CD
:1012600009F4E4CCB70180E290E00E94BE0A5A94EF
:10127000F6CFF7018681978126C08FEF9FEF23C0BD
:10128000B70180E290E00E94BE0A5A945110F8CF54
:10129000D8CF512CB701802F90E00E94BE0AD3CF47
:1012A00008E510E0D5CF91108052B70190E00E9480
:1012B000BE0A0F5F1F4FCFCF23E0251510F483E048
:1012C000BDCF512CC0CF6096E2E10C94A609DB01A2
:1012D0008F939F930E947709BF91AF91A29F800D3A
:1012E000911DA39F900DB29F900D112408950E940F
:1012F000C109A59F900DB49F900DA49F800D911DD5
:1013000011240895B7FF0C9477090E947709821B76
:10131000930B08952F923F924F925F926F927F921C
:101320008F929F92AF92BF92CF92DF92EF92FF92F5
:101330000F931F93CF93DF93CDB7DEB7CA1BDB0BA1
:101340000FB6F894DEBF0FBECDBF09942A88398846
:1013500048885F846E847D848C849B84AA84B9844D
:10136000C884DF80EE80FD800C811B81AA81B98159
:10137000CE0FD11D0FB6F894DEBF0FBECDBFED016D
:101380000895A29FB001B39FC001A39F700D811D5E
:101390001124911DB29F700D811D1124911D08957E
:1013A000283008F027E03327DA01990F311D87FD37
:1013B000916000966105710539F432602E5F3D93AE
:1013C00030E32A95E1F708959F3F30F080387105AA
:1013D000610509F03C5F3C5F3D93913008F0806807
:1013E000911DDF93CF931F930F93FF92EF92192FCD
:1013F000987F9695E92F96959695E90FFF27EA54E1
:10140000FF4F99273327EE24FF24A701E70105901A
:101410000894079428F4360FE71EF81E491F511D43
:10142000660F771F881F991F0694A1F705900794F0
:1014300028F4E70EF81E491F561FC11D770F881F9D
:10144000991F661F0694A1F70590079428F4F80EDB
:10145000491F561FC71FD11D880F991F661F771F71
:101460000694A1F70590079420F4490F561FC71F53
:10147000D81F990F661F771F881F0694A9F78491BC
:101480001095177041F0D695C79557954795F794E5
:10149000E7941A95C1F7ECE5F0E068941590159182
:1014A00035916591959105907FE27395E118F10A68
:1014B000430B560BC90BD009C0F7E10CF11E431FBB
:1014C000561FC91FD01D7EF4703311F48A95E6CFE4
:1014D000E894015030F0080F0AF40027021708F4CE
:1014E000202F2395022F7A3328F079E37D932A95D4
:1014F000E9F710C07D932A9589F60694979567952C
:10150000379517951794E118F10A430B560BC90B41
:10151000D00998F023957E9173957A3308F070E3A3
:101520007C932013B8F77E9170617D9330F08395A2
:1015300071E37D9370E32A95E1F71124EF90FF901A
:101540000F911F91CF91DF91992787FD9095089575
:10155000FC010590615070400110D8F7809590957E
:101560008E0F9F1F0895FC01615070400190011083
:10157000D8F7809590958E0F9F1F08950F931F9316
:10158000CF93DF93FB01238121FD03C08FEF9FEFFA
:101590002CC022FF16C04681578124813581421715
:1015A000530744F4A081B1819D012F5F3F4F3183E8
:1015B00020838C93268137812F5F3F4F378326838B
:1015C00014C08B01EC01FB010084F185E02D09952D
:1015D000892BE1F6D80116968D919C91179701966B
:1015E00017969C938E931697CE01DF91CF911F9102
:1015F0000F910895AEE0B0E0E0E0FBE00C949809B4
:101600000D891E8986E08C831A8309838FEF9FE7FB
:101610009E838D83AE01475E5F4F6F89788DCE01CB
:1016200001960E94EA05EF81F885E00FF11F108214
:101630002E96E4E00C94B409FA01AA27283051F15F
:10164000203181F1E8946F936E7F6E5F7F4F8F4FF3
:101650009F4FAF4FB1E03ED0B4E03CD0670F781F52
:10166000891F9A1FA11D680F791F8A1F911DA11D37
:101670006A0F711D811D911DA11D20D009F4689470
:101680003F912AE0269F11243019305D3193DEF618
:10169000CF010895462F4770405D4193B3E00FD0CE
:1016A000C9F7F6CF462F4F70405D4A3318F0495DB9
:1016B00031FD4052419302D0A9F7EACFB4E0A6959C
:1016C0009795879577956795BA95C9F700976105BE
:1016D000710508959B01AC010A2E06945795479514
:1016E00037952795BA95C9F7620F731F841F951F09
:1016F000A01D0895A8E1B0E042E050E00C94940BE6
:10170000262FE199FECF9FBB8EBB2DBB0FB6F89461
:10171000E29AE19A0FBE019608950E94800B272F4E
:101720000C94810BDC01CB01FC01E199FECF06C0DA
:10173000FFBBEEBBE09A31960DB20D924150504086
:08174000B8F70895F894FFCFFB
:101748002568750025686900252E326600455252C5
:101758004F522100424D503238302077726F6E67F9
:0417680020494400D0
:00000001FF
