:100000000C94B1000C94CE000C94CE000C94CE0055
:100010000C94CE000C94CE000C94CE000C94CE0028
:100020000C94CE000C94CE000C94CE000C94CE0018
:100030000C94CE000C9446020C94CE000C94CE008E
:100040000C94CE000C94CE000C94CE000C94CE00F8
:100050000C94CE006E616E00696E660000407A10EE
:10006000F35A00A0724E18090010A5D4E80000E869
:100070007648170000E40B54020000CA9A3B0000C7
:1000800000E1F505000080969800000040420F0056
:100090000000A08601000000102700000000E80317
:1000A000000000006400000000000A0000000000E2
:1000B0000100000000002C76D888DC674F0823DFA1
:1000C000C1DFAE59E1B1B796E5E3E453C63AE65174
:1000D000997696E8E6C28426EB898C9B62ED407C9B
:1000E0006FFCEFBC9C9F40F2BAA56FA5F490055A37
:1000F0002AF75C936B6CF9676DC11BFCE0E40D475C
:10010000FEF520E6B500D0ED902E0300943577057E
:100110000080841E080000204E0A000000C80C3336
:100120003333330F986E12831141EF8D2114893BC5
:10013000E65516CFFEE6DB18D1844B381BF77C1D45
:10014000901DA4BBE424203284725E228100C9F198
:1001500024ECA1E53D276364696E6F707375785870
:100160005B0011241FBECFE5D8E0DEBFCDBF10E09D
:10017000A0E6B0E0EAEAF9E102C005900D92A23AE9
:10018000B107D9F721E0A2EAB0E001C01D92A03387
:10019000B207E1F70E9481020C94D30C0C9400008A
:1001A0009C0183E083BF83E807C082BF98B791605A
:1001B00098BF08B600FEFDCF21503109B0F713BE3D
:1001C0000895CF930E94DD028EEE0E94E30280ED3F
:1001D0000E94EA020E94DD028FEE0E94F1020E945C
:1001E000FF02C82F0E94060381E090E0C83511F09D
:1001F00080E090E0CF9108954FEE6EEE88E80E9487
:1002000009039093A7008093A6004FEE6EEE8AE854
:100210000E9409039093A5008093A4004FEE6EEE18
:100220008CE80E9409039093A3008093A200089594
:100230000E94DD028EEE0E94E30284EF0E94EA0239
:1002400083E90E94EA020E94060308950E94E100E9
:10025000009731F00E94FC000E94180181E090E0BC
:100260000895662311F0C09A01C0C098C1988BBB55
:100270008FEF8ABBC29A000000000000C298089568
:10028000C098C19A1ABA99B3C29A0000000000003F
:100290001ABA99B3C29899239CF30E943101089528
:1002A000B89AB99ABA9A80E190E00E94D00060E0D2
:1002B00080E30E94310185E090E00E94D00060E080
:1002C00080E30E94310181E090E00E94D00060E074
:1002D0008CE30E94400160E08CE00E94400160E0FD
:1002E00086E00E94400160E081E00E9440010895A4
:1002F000CF93C62F98E2899FC00D112460E082E061
:100300000E944001CC2331F060E084E10E94400172
:10031000C150D1F7CF910895CF93DF93EC0121968F
:10032000FC018081882331F061E00E9440018991C5
:100330008111FACFDF91CF910895ECEAF0E08CEED5
:1003400090E01192E817F907E1F708955D9BFECF61
:100350008CB908950F931F93CF93FC012081222322
:1003600049F08C01F801C1918F018C2F0E94A601E8
:10037000C111F8CFCF911F910F9108950F931F9343
:10038000CF93DF93CDB7DEB72A970FB6F894DEBFD1
:100390000FBECDBF8091AC008037B1F48091A80032
:1003A0009091A9008130910529F41092A900109232
:1003B000A80061C0892B09F05EC081E090E09093B5
:1003C000A9008093A80057C08E3609F050C0ECEA0F
:1003D000F0E08181898382818A831B82CE01099624
:1003E0009F938F9380E690E09F938F93CE01019629
:1003F0009F938F930E942B0989859A850E94D10231
:100400000F900F900F900F900F900F90892B51F13C
:1004100089859A850E94AE02BC0180E090E00E942E
:100420009D0320E030E048EC52E40E942B039F93B0
:100430008F937F936F9383E690E09F938F938E01CA
:100440000F5F1F4F1F930F930E940909C8010E945D
:10045000AA018AE00E94A6010FB6F894DEBF0FBE83
:10046000CDBF09C088E690E00E94AA0104C088E7D9
:1004700090E00E94AA012A960FB6F894DEBF0FBE44
:10048000CDBFDF91CF911F910F9108951F920F92D1
:100490000FB60F9211242F933F934F935F936F9357
:1004A0007F938F939F93AF93BF93EF93FF932CB161
:1004B0008091AA009091AB00FC01E455FF4F20838E
:1004C0002A3049F41092AB001092AA000E94BE019B
:1004D0000E949D0105C001969093AB008093AA00F5
:1004E000FF91EF91BF91AF919F918F917F916F910C
:1004F0005F914F913F912F910F900FBE0F901F90E2
:1005000018950E9450010E94D9020E942601892B51
:1005100089F460E080E00E9478018AE890E00E941F
:100520008C0160E081E00E94780181E990E00E9406
:100530008C01FFCF8AB188698AB980B5866880BD91
:1005400083E389B910BCC09A789484EF91E00E944B
:10055000D00088EE93E00E94D000FBCF0F931F9352
:10056000CF93DF938C0181E090E00E94BD0CEC0101
:1005700089E190E00E94D000000F111F000F111FB1
:10058000CE01801B910B8A3091051CF00E94BD0C9E
:1005900003C040960E94BD0CDF91CF911F910F9137
:1005A000089521E030E0049710F020E030E0C90128
:1005B000089510B88CE080B9089584EA86BF06B625
:1005C00007FEFDCF089583B984E886BF06B607FE0F
:1005D000FDCF089583B984E886BF06B607FEFDCF38
:1005E000089583B984E886BF06B607FEFDCF089557
:1005F00084EC86BF06B607FEFDCF83B1089584E87C
:1006000086BF06B607FEFDCF83B1089584E986BF95
:1006100008951F93CF93DF93D82F162FC42F0E94D6
:10062000DD02812F0E94E3028D2F0E94EA020E94C8
:10063000DD028C2F0E94F1020E94F802C82FD0E048
:100640000E94FF0294E996BF9E01382BC901DF91F9
:10065000CF911F9108950E943F030C94F1030E94D3
:10066000EA0358F00E94E30340F029F45F3F29F0C9
:100670000C94DA0351110C9425040C94E0030E94AD
:10068000020468F39923B1F3552391F3951B550B9D
:10069000BB27AA2762177307840738F09F5F5F4F55
:1006A000220F331F441FAA1FA9F335D00E2E3AF094
:1006B000E0E832D091505040E695001CCAF72BD0AC
:1006C000FE2F29D0660F771F881FBB1F26173707FD
:1006D0004807AB07B0E809F0BB0B802DBF01FF272F
:1006E00093585F4F3AF09E3F510578F00C94DA032F
:1006F0000C9425045F3FE4F3983ED4F386957795F8
:100700006795B795F7959F5FC9F7880F911D9695E7
:10071000879597F90895E1E0660F771F881FBB1F43
:10072000621773078407BA0720F0621B730B840BF0
:10073000BA0BEE1F88F7E0950895E89409C097FB7F
:100740003EF490958095709561957F4F8F4F9F4FA8
:100750009923A9F0F92F96E9BB279395F6958795EC
:1007600077956795B795F111F8CFFAF4BB0F11F4AF
:1007700060FF1BC06F5F7F4F8F4F9F4F16C0882356
:1007800011F096E911C0772321F09EE8872F762F8C
:1007900005C0662371F096E8862F70E060E02AF0CD
:1007A0009A95660F771F881FDAF7880F96958795B9
:1007B00097F9089597F99F6780E870E060E00895E1
:1007C0009FEF80EC089500240A9416161706180669
:1007D0000906089500240A94121613061406050645
:1007E0000895092E0394000C11F4882352F0BB0FD6
:1007F00040F4BF2B11F460FF04C06F5F7F4F8F4F39
:100800009F4F089557FD9058440F551F59F05F3F73
:1008100071F04795880F97FB991F61F09F3F79F022
:1008200087950895121613061406551FF2CF4695A4
:10083000F1DF08C0161617061806991FF1CF869526
:100840007105610508940895E894BB27662777270A
:10085000CB0197F90895A0E1B0E0E1E3F4E00C9456
:10086000A8077C011B016A01FC01178216828381A3
:1008700081FF44C39E012F5F3F4F3901F7019381F0
:10088000F10193FD859193FF81911F01882309F464
:1008900031C3853239F493FD859193FF81911F0116
:1008A000853239F4B70190E00E94CD085601650108
:1008B000E5CF10E0512C912CFFE1F915D8F08B32E7
:1008C00079F038F4803279F08332A1F4F92DF061B7
:1008D0002EC08D3261F0803369F4292D21602DC046
:1008E000392D3260932E892D8460982E2AC0E92DEF
:1008F000E86015C097FC2DC020ED280F2A3088F441
:1009000096FE06C03AE0139F200D1124122F19C045
:100910008AE0589E200D1124522EE92DE0629E2E71
:1009200010C08E3231F496FCE5C2F92DF0649F2E92
:1009300008C08C3621F4292D2068922E02C08836FA
:1009400041F4F10193FD859193FF81911F01811184
:10095000B3CF9BEB980F933020F4992D9061805E7C
:1009600007C09BE9980F933008F066C1992D9F7ED0
:1009700096FF16E09F73992E853619F49064992E90
:1009800008C0863621F4392F3068932E02C0111129
:10099000115097FE07C01C3350F444244394410E79
:1009A00027E00BC0183038F027E017E005C027E03B
:1009B0009CE3492E02C0212F412C560184E0A80E51
:1009C000B11CF6016081718182819381042DA301A4
:1009D0000E94DF076C01F981FC87F0FF02C0F3FF82
:1009E00006C091FC06C092FE06C000E205C00DE202
:1009F00003C00BE201C000E08C858C7019F001117E
:100A00005AC29BC297FE10C04C0CFC85F4FF04C078
:100A10008A81813309F44A94141474F528E024156A
:100A200078F588E0482E2CC096FC2AC0812F90E0F3
:100A30008C159D059CF03CEFC3163FEFD30674F078
:100A4000892D8068982E0AC0E2E0F0E0EC0FFD1FCF
:100A5000E10FF11D8081803319F411501111F4CF91
:100A600097FE0EC044244394410E812F90E0C81697
:100A7000D9062CF41C1904C04424439401C010E08E
:100A800097FE06C01C141D0434F4C601019605C06F
:100A900085E090E002C081E090E001110196112311
:100AA00031F0212F30E02F5F3F4F820F931F252D14
:100AB00030E08217930714F4581A01C0512C892D85
:100AC000897049F4552039F0B70180E290E00E9426
:100AD000CD085A94F7CF002329F0B701802F90E07A
:100AE0000E94CD0893FC09C0552039F0B70180E37E
:100AF00090E00E94CD085A94F7CF97FE4CC0460173
:100B0000D7FE02C0812C912CC60188199909F301E6
:100B1000E80FF91FFE87ED87960124193109388BFC
:100B20002F87012F10E01195019511093FEF8316D2
:100B3000930629F4B7018EE290E00E94CD08C81414
:100B4000D9044CF08F8598898815990524F4ED8592
:100B5000FE85818101C080E3F1E08F1A91082D8527
:100B60003E852F5F3F4F3E872D87801691062CF0E4
:100B7000B70190E00E94CD08D9CFC814D90441F440
:100B80009A81963320F4953319F43C8534FF81E340
:100B9000B70190E04EC08A81813319F09C859F7E19
:100BA0009C87B70190E00E94CD08111105C094FC0C
:100BB00018C085E690E017C0B7018EE290E00E9471
:100BC000CD081E5F82E001E0080FF301E80FF11D80
:100BD0008081B70190E00E94CD08802F0113F3CFF0
:100BE000E6CF85E490E0B7010E94CD08D7FC06C0AF
:100BF000C114D10441F4EC85E4FF05C0D194C19443
:100C0000D1088DE201C08BE2B70190E00E94CD08CF
:100C100080E32AE0C216D1042CF08F5FFAE0CF1AED
:100C2000D108F7CFB70190E00E94CD08B701C60107
:100C3000C0960E94CD0854C1833631F0833779F0D5
:100C4000833509F056C020C0560132E0A30EB11C16
:100C5000F6018081898301E010E0630112C0560132
:100C6000F2E0AF0EB11CF601C080D18096FE03C049
:100C7000612F70E002C06FEF7FEFC6010E94C208D3
:100C80008C01F92DFF7714C0560122E0A20EB11C91
:100C9000F601C080D18096FE03C0612F70E002C0D3
:100CA0006FEF7FEFC6010E94B7088C01F92DF06845
:100CB0009F2EF3FD1AC0852D90E008171907A8F4A0
:100CC000B70180E290E00E94CD085A94F4CFF6017B
:100CD00097FC859197FE81916F01B70190E00E948A
:100CE000CD0851105A94015011090115110579F7D9
:100CF000F7C0843611F0893661F5560197FE09C0B8
:100D000024E0A20EB11CF601608171818281938181
:100D10000AC0F2E0AF0EB11CF60160817181072EAE
:100D2000000C880B990BF92DFF769F2E97FF09C0B9
:100D300090958095709561957F4F8F4F9F4FF0688C
:100D40009F2E2AE030E0A3010E944409C82EC61855
:100D50003FC0092D853721F40F7E2AE030E01DC009
:100D6000097F8F3691F018F4883559F0C3C0803769
:100D700019F0883711F0BEC0006104FF09C004609B
:100D800007C094FE08C0066006C028E030E005C039
:100D900020E130E002C020E132E0560107FF09C047
:100DA00084E0A80EB11CF60160817181828193817B
:100DB00008C0F2E0AF0EB11CF6016081718180E0E5
:100DC00090E0A3010E944409C82EC6180F77902E08
:100DD00096FE0BC0092D0E7FC11650F494FE0AC07A
:100DE00092FC08C0092D0E7E05C0DC2C092D03C025
:100DF000DC2C01C0D12E04FF0DC0FE01EC0DF11D55
:100E00008081803311F4097E09C002FF06C0D394AB
:100E1000D39404C0802F867809F0D39403FD11C0C9
:100E200000FF06C01C2DD51480F4150D1D190DC032
:100E3000D51458F4B70180E290E00E94CD08D39415
:100E4000F7CFD51410F45D1801C0512C04FF10C069
:100E5000B70180E390E00E94CD0802FF17C001FDBA
:100E600003C088E790E002C088E590E0B7010CC0BD
:100E7000802F867859F001FF02C08BE201C080E22A
:100E800007FD8DE2B70190E00E94CD08C11638F44D
:100E9000B70180E390E00E94CD081150F7CFCA94CB
:100EA000F301EC0DF11D8081B70190E00E94CD08A7
:100EB000C110F5CF15C0F4E0F51560F584E0581ABF
:100EC00093FE1FC0011127C02C8523FF2AC004E513
:100ED00010E0392D3071932EF8018491811124C0D6
:100EE000552009F4E4CCB70180E290E00E94CD08DF
:100EF0005A94F6CFF7018681978126C08FEF9FEF36
:100F000023C0B70180E290E00E94CD085A945110AE
:100F1000F8CFD8CF512CB701802F90E00E94CD0898
:100F2000D3CF08E510E0D5CF91108052B70190E003
:100F30000E94CD080F5F1F4FCFCF23E0251510F47F
:100F400083E0BDCF512CC0CF6096E2E10C94C40782
:100F50002F923F924F925F926F927F928F929F92C9
:100F6000AF92BF92CF92DF92EF92FF920F931F93B7
:100F7000CF93DF93CDB7DEB7CA1BDB0B0FB6F89468
:100F8000DEBF0FBECDBF09942A88398848885F84A8
:100F90006E847D848C849B84AA84B984C884DF8019
:100FA000EE80FD800C811B81AA81B981CE0FD11DFD
:100FB0000FB6F894DEBF0FBECDBFED010895283007
:100FC00008F027E03327DA01990F311D87FD916082
:100FD00000966105710539F432602E5F3D9330E370
:100FE0002A95E1F708959F3F30F08038710561053B
:100FF00009F03C5F3C5F3D93913008F08068911DA3
:10100000DF93CF931F930F93FF92EF92192F987F47
:101010009695E92F96959695E90FFF27EA54FF4F8D
:1010200099273327EE24FF24A701E70105900894B0
:10103000079428F4360FE71EF81E491F511D660F4E
:10104000771F881F991F0694A1F70590079428F42D
:10105000E70EF81E491F561FC11D770F881F991FE5
:10106000661F0694A1F70590079428F4F80E491F0F
:10107000561FC71FD11D880F991F661F771F069423
:10108000A1F70590079420F4490F561FC71FD81FDA
:10109000990F661F771F881F0694A9F784911095F2
:1010A000177041F0D695C79557954795F794E794F3
:1010B0001A95C1F7ECE5F0E068941590159135911B
:1010C0006591959105907FE27395E118F10A430BC4
:1010D000560BC90BD009C0F7E10CF11E431F561F78
:1010E000C91FD01D7EF4703311F48A95E6CFE894C1
:1010F000015030F0080F0AF40027021708F4202FDF
:101100002395022F7A3328F079E37D932A95E9F726
:1011100010C07D932A9589F6069497956795379523
:1011200017951794E118F10A430B560BC90BD00918
:1011300098F023957E9173957A3308F070E37C9351
:101140002013B8F77E9170617D9330F0839571E341
:101150007D9370E32A95E1F71124EF90FF900F91B2
:101160001F91CF91DF91992787FD90950895FC01FC
:101170000590615070400110D8F7809590958E0FC2
:101180009F1F0895FC016150704001900110D8F735
:10119000809590958E0F9F1F08950F931F93CF9367
:1011A000DF93FB01238121FD03C08FEF9FEF2CC054
:1011B00022FF16C04681578124813581421753078B
:1011C00044F4A081B1819D012F5F3F4F3183208383
:1011D0008C93268137812F5F3F4F3783268314C03E
:1011E0008B01EC01FB010084F185E02D0995892B31
:1011F000E1F6D80116968D919C9117970196179656
:101200009C938E931697CE01DF91CF911F910F91F2
:101210000895AEE0B0E0EFE0F9E00C94B6070D8978
:101220001E8986E08C831A8309838FEF9FE79E8354
:101230008D83AE01475E5F4F6F89788DCE01019639
:101240000E942B04EF81F885E00FF11F10822E968B
:10125000E4E00C94D207AEE0B0E0E1E3F9E00C94F6
:10126000B80785E08C838B899C899A838983AE013A
:10127000495E5F4F6D897E89CE0101960E943E0BCB
:101280002E96E2E00C94D407FA01AA27283051F1F7
:10129000203181F1E8946F936E7F6E5F7F4F8F4FA7
:1012A0009F4FAF4FB1E03ED0B4E03CD0670F781F06
:1012B000891F9A1FA11D680F791F8A1F911DA11DEB
:1012C0006A0F711D811D911DA11D20D009F4689424
:1012D0003F912AE0269F11243019305D3193DEF6CC
:1012E000CF010895462F4770405D4193B3E00FD082
:1012F000C9F7F6CF462F4F70405D4A3318F0495D6D
:1013000031FD4052419302D0A9F7EACFB4E0A6954F
:101310009795879577956795BA95C9F70097610571
:10132000710508959B01AC010A2E069457954795C7
:1013300037952795BA95C9F7620F731F841F951FBC
:10134000A01D089520FD09C0FC0123FD05C022FF5A
:1013500002C07383628351834083089544FD17C0A4
:1013600046FD17C0AB01BC01DA01FB01AA0FBB1F90
:10137000EE1FFF1F1094D1F74A0F5B1F6E1F7F1FD8
:10138000CB01BA01660F771F881F991F09C033E090
:1013900001C034E0660F771F881F991F3150D1F7C5
:1013A000620F711D811D911D08950F931F93CF939F
:1013B000DF938C01C8010E94630CEC0197FD08C00B
:1013C0000E944F0C892BB1F7B801CE010E94A10CED
:1013D000CE01DF91CF911F910F9108958F929F922F
:1013E000AF92BF92EF92FF920F931F93CF93DF9331
:1013F0008C01D62F7A01B22E0E94630C9C013327F8
:101400002B32310531F02D32310561F48B2D80689E
:10141000B82ED15011F480E068C0C8010E94630C5E
:1014200097FDF9CFCB2DCD7F2B2D207309F5803380
:10143000F9F4AA24AA94AD0E09F443C0C8010E948D
:10144000630C97FD3EC09C012F7D33272835310565
:1014500049F4C264D250A9F1C8010E94630C97FFFD
:1014600007C02FC0B6FE02C0C26001C0C261DA2D43
:10147000812C912C540120ED280F283080F0C4FFDE
:1014800004C0B8010E94A10C19C02A3040F0C6FF68
:10149000F8CF2F7D3FEE320F363098F727504C2F84
:1014A000C501B4010E94AE094B015C01C260D1507C
:1014B00059F0C8010E94630C97FFDDCFC1FD04C045
:1014C000AACF812C912C5401C7FF08C0B094A094DE
:1014D00090948094811C911CA11CB11C2C2FB501EF
:1014E000A401C7010E94A20981E0DF91CF911F9161
:1014F0000F91FF90EF90BF90AF909F908F900895C5
:10150000A0E2B0E0E6E8FAE00C94AB075C01962EAE
:101510007A01F9018E010F5F1F4F680180E2D80147
:101520001D928A95E9F7D50113968C9080E090E0A2
:10153000612C712C30E061E070E083FC259183FE2A
:1015400021918F01522E211103C080E090E092C0C2
:101550002E3511F4009751F1432F50E048175907E9
:101560003CF42D3559F12D3219F4772009F103C0DF
:10157000772009F46AC0452D469546954695D601D3
:10158000A40FB11D452D47708B0102C0000F111F24
:101590004A95E2F7A8015C91452B4C93651459F0EC
:1015A000561410F45394E7CF5A94E5CF31E004C0B9
:1015B0007724739401C0712C0196BFCF772019F066
:1015C0008E8180628E83311103C08824839417C07A
:1015D000F6019E012F5D3F4F8081809581932E17EC
:1015E0003F07D1F7F2CFE114F10429F0D7018C9332
:1015F000F70131967F019A94812C9920F9F0C50169
:101600000E94630C97FD18C0FC01FF2723E0F595AD
:10161000E7952A95E1F7EC0DFD1D208130E0AC0146
:101620004770552702C0359527954A95E2F720FD6A
:10163000DACFB5010E94A10C811087CFE114F1042B
:1016400011F0D7011C92C80115C0422F469546954E
:101650004695D601A40FB11D422F47708B0102C0E1
:10166000000F111F4A95E2F7A8015C91452B4C939E
:10167000622EA2CFA096EFE00C94C707A0E0B0E0E6
:10168000E4E4FBE00C94AB076C01EB015A01FC01B4
:1016900017821682512CF601E380FE01E3FC85914E
:1016A000E3FE8191182FEF01882309F4EEC090E04A
:1016B0000E944F0C892B21F0C6010E94D509EBCF67
:1016C000153241F4FE01E3FC1591E3FE1191EF01A7
:1016D000153281F4C6010E94630C97FDD4C0412FDE
:1016E00050E09C01332724173507A9F2B6010E9468
:1016F000A10CCBC01A3239F4E3FC1591E3FE119131
:10170000EF0101E001C000E0F12C20ED210F2A30B3
:1017100080F402606F2D70E080E090E040E20E9473
:10172000AE09F62EFE01E3FC1591E3FE1191EF01E7
:10173000ECCF01FF03C0F11003C0A7C0FF24FA944F
:10174000183619F01C3651F010C0FE01E3FC15915B
:10175000E3FE1191EF01183641F408600460FE01C8
:10176000E3FC1591E3FE1191EF01112309F48DC003
:10177000612F70E086E591E00E94580C892B09F4F6
:1017800084C000FD07C0F50180809180C5010296EC
:101790005C0102C0812C912C1E3651F4F601468169
:1017A000578160E070E0202FC4010E94A20973CF2E
:1017B0001336A9F401FD02C0FF24F394C6010E9470
:1017C000630C97FD60C08114910429F0F4018083BB
:1017D000C40101964C01FA94F110F0CF50C01B35B2
:1017E00059F49E01A4016F2DC6010E94800AEC01EC
:1017F000892B09F044C03EC0C6010E94D50997FD5F
:1018000042C01F3661F128F4143639F1193651F10E
:1018100028C0133771F0153701F123C081149104EA
:1018200029F0F4016082C40101964C01FA94FF2072
:1018300071F0C6010E94630C3C0197FD08C00E9434
:101840004F0C892B59F3B601C3010E94A10C8114DE
:101850009104A9F0F401108212C0006203C000617B
:1018600001C00064202FA4016F2DC6010E94EE0963
:10187000811105C0F6018381807329F406C000FD43
:101880000ACF539408CF552019F0852D90E002C05F
:101890008FEF9FEFCDB7DEB7EFE00C94C707911144
:1018A0000C94BA0C803219F089508550C8F708950D
:1018B000FC010590061621F00020D9F7C00108951B
:1018C0003197CF010895CF93DF93EC012B8120FF57
:1018D00033C026FF0AC02F7B2B838E819F81019608
:1018E0009F838E838A8190E029C022FF0FC0E88108
:1018F000F9818081082E000C990B009719F4206261
:101900002B831AC03196F983E8830EC0EA85FB85E4
:10191000099597FF09C02B81019611F080E201C063
:1019200080E1822B8B8308C02E813F812F5F3F4F48
:101930003F832E83992702C08FEF9FEFDF91CF91D6
:101940000895FB01238120FF12C026FD10C08F3FA8
:101950003FEF930761F082832F7D206423832681EC
:1019600037812150310937832683992708958FEFD6
:101970009FEF0895992788270895A8E1B0E042E0F5
:1019800050E00C94C50CDC01CB01FC01E199FECFC9
:1019900006C0FFBBEEBBE09A31960DB20D924150EE
:0A19A0005040B8F70895F894FFCF07
:1019AA00256400252E326600494E56414C49442092
:1019BA00494E444558200A00494E56414C49442054
:1019CA00434F4D4D414E44200A004552524F522139
:1019DA0000424D503238302077726F6E672049448A
:0219EA000000FB
:00000001FF
